{
  "address": "0xa3B9eC537eA62927E21C2335b0d33E0E80252D7b",
  "abi": [
    {
      "inputs": [],
      "name": "ECDSAInvalidSignature",
      "type": "error"
    },
    {
      "inputs": [
        {
          "internalType": "uint256",
          "name": "length",
          "type": "uint256"
        }
      ],
      "name": "ECDSAInvalidSignatureLength",
      "type": "error"
    },
    {
      "inputs": [
        {
          "internalType": "bytes32",
          "name": "s",
          "type": "bytes32"
        }
      ],
      "name": "ECDSAInvalidSignatureS",
      "type": "error"
    },
    {
      "inputs": [],
      "name": "InvalidInitialization",
      "type": "error"
    },
    {
      "inputs": [],
      "name": "NotInitializing",
      "type": "error"
    },
    {
      "inputs": [
        {
          "internalType": "address",
          "name": "owner",
          "type": "address"
        }
      ],
      "name": "OwnableInvalidOwner",
      "type": "error"
    },
    {
      "inputs": [
        {
          "internalType": "address",
          "name": "account",
          "type": "address"
        }
      ],
      "name": "OwnableUnauthorizedAccount",
      "type": "error"
    },
    {
      "inputs": [],
      "name": "ReentrancyGuardReentrantCall",
      "type": "error"
    },
    {
      "anonymous": false,
      "inputs": [
        {
          "indexed": true,
          "internalType": "string",
          "name": "answererId",
          "type": "string"
        },
        {
          "indexed": false,
          "internalType": "address",
          "name": "to",
          "type": "address"
        },
        {
          "indexed": false,
          "internalType": "uint256",
          "name": "reward",
          "type": "uint256"
        }
      ],
      "name": "AnswererRewarded",
      "type": "event"
    },
    {
      "anonymous": false,
      "inputs": [
        {
          "indexed": true,
          "internalType": "string",
          "name": "askerId",
          "type": "string"
        },
        {
          "indexed": false,
          "internalType": "address",
          "name": "to",
          "type": "address"
        },
        {
          "indexed": false,
          "internalType": "uint256",
          "name": "reward",
          "type": "uint256"
        }
      ],
      "name": "AskerRewarded",
      "type": "event"
    },
    {
      "anonymous": false,
      "inputs": [
        {
          "indexed": false,
          "internalType": "uint64",
          "name": "version",
          "type": "uint64"
        }
      ],
      "name": "Initialized",
      "type": "event"
    },
    {
      "anonymous": false,
      "inputs": [
        {
          "indexed": true,
          "internalType": "address",
          "name": "previousOwner",
          "type": "address"
        },
        {
          "indexed": true,
          "internalType": "address",
          "name": "newOwner",
          "type": "address"
        }
      ],
      "name": "OwnershipTransferred",
      "type": "event"
    },
    {
      "anonymous": false,
      "inputs": [
        {
          "indexed": true,
          "internalType": "uint256",
          "name": "questionId",
          "type": "uint256"
        },
        {
          "indexed": false,
          "internalType": "string",
          "name": "askerId",
          "type": "string"
        },
        {
          "indexed": false,
          "internalType": "string",
          "name": "answererId",
          "type": "string"
        },
        {
          "indexed": false,
          "internalType": "uint256",
          "name": "refundToAsker",
          "type": "uint256"
        },
        {
          "indexed": false,
          "internalType": "uint256",
          "name": "rewardToAnswerer",
          "type": "uint256"
        },
        {
          "indexed": false,
          "internalType": "uint256",
          "name": "fee",
          "type": "uint256"
        }
      ],
      "name": "QuestionExpired",
      "type": "event"
    },
    {
      "anonymous": false,
      "inputs": [
        {
          "indexed": true,
          "internalType": "uint256",
          "name": "questionId",
          "type": "uint256"
        },
        {
          "indexed": false,
          "internalType": "string",
          "name": "askerId",
          "type": "string"
        },
        {
          "indexed": false,
          "internalType": "string",
          "name": "answererId",
          "type": "string"
        },
        {
          "indexed": false,
          "internalType": "uint256",
          "name": "rewardToAnswerer",
          "type": "uint256"
        },
        {
          "indexed": false,
          "internalType": "uint256",
          "name": "fee",
          "type": "uint256"
        }
      ],
      "name": "QuestionProcessed",
      "type": "event"
    },
    {
      "anonymous": false,
      "inputs": [
        {
          "indexed": true,
          "internalType": "uint256",
          "name": "questionId",
          "type": "uint256"
        },
        {
          "indexed": false,
          "internalType": "string",
          "name": "askerId",
          "type": "string"
        },
        {
          "indexed": false,
          "internalType": "string",
          "name": "answererId",
          "type": "string"
        },
        {
          "indexed": false,
          "internalType": "address",
          "name": "paymentAddress",
          "type": "address"
        },
        {
          "indexed": false,
          "internalType": "uint256",
          "name": "reward",
          "type": "uint256"
        },
        {
          "indexed": false,
          "internalType": "uint256",
          "name": "expiryTimestamp",
          "type": "uint256"
        }
      ],
      "name": "QuestionSubmitted",
      "type": "event"
    },
    {
      "anonymous": false,
      "inputs": [
        {
          "indexed": true,
          "internalType": "uint256",
          "name": "questionId",
          "type": "uint256"
        },
        {
          "indexed": false,
          "internalType": "string",
          "name": "viewerId",
          "type": "string"
        },
        {
          "indexed": false,
          "internalType": "string",
          "name": "askerId",
          "type": "string"
        },
        {
          "indexed": false,
          "internalType": "string",
          "name": "answererId",
          "type": "string"
        },
        {
          "indexed": false,
          "internalType": "uint256",
          "name": "rewardToAsker",
          "type": "uint256"
        },
        {
          "indexed": false,
          "internalType": "uint256",
          "name": "rewardToAnswerer",
          "type": "uint256"
        },
        {
          "indexed": false,
          "internalType": "uint256",
          "name": "fee",
          "type": "uint256"
        }
      ],
      "name": "QuestionViewed",
      "type": "event"
    },
    {
      "anonymous": false,
      "inputs": [
        {
          "indexed": true,
          "internalType": "string",
          "name": "uid",
          "type": "string"
        },
        {
          "indexed": true,
          "internalType": "address",
          "name": "user",
          "type": "address"
        }
      ],
      "name": "Registered",
      "type": "event"
    },
    {
      "inputs": [],
      "name": "MIN_REWARD",
      "outputs": [
        {
          "internalType": "uint256",
          "name": "",
          "type": "uint256"
        }
      ],
      "stateMutability": "view",
      "type": "function"
    },
    {
      "inputs": [
        {
          "internalType": "address",
          "name": "",
          "type": "address"
        }
      ],
      "name": "addressToUid",
      "outputs": [
        {
          "internalType": "string",
          "name": "",
          "type": "string"
        }
      ],
      "stateMutability": "view",
      "type": "function"
    },
    {
      "inputs": [
        {
          "internalType": "string",
          "name": "",
          "type": "string"
        }
      ],
      "name": "answererEarnings",
      "outputs": [
        {
          "internalType": "uint256",
          "name": "",
          "type": "uint256"
        }
      ],
      "stateMutability": "view",
      "type": "function"
    },
    {
      "inputs": [],
      "name": "answererRefundPercentage",
      "outputs": [
        {
          "internalType": "uint8",
          "name": "",
          "type": "uint8"
        }
      ],
      "stateMutability": "view",
      "type": "function"
    },
    {
      "inputs": [],
      "name": "answererViewRewardPercentage",
      "outputs": [
        {
          "internalType": "uint8",
          "name": "",
          "type": "uint8"
        }
      ],
      "stateMutability": "view",
      "type": "function"
    },
    {
      "inputs": [],
      "name": "askerRefundPercentage",
      "outputs": [
        {
          "internalType": "uint8",
          "name": "",
          "type": "uint8"
        }
      ],
      "stateMutability": "view",
      "type": "function"
    },
    {
      "inputs": [],
      "name": "askerViewRewardPercentage",
      "outputs": [
        {
          "internalType": "uint8",
          "name": "",
          "type": "uint8"
        }
      ],
      "stateMutability": "view",
      "type": "function"
    },
    {
      "inputs": [
        {
          "internalType": "address",
          "name": "_server",
          "type": "address"
        }
      ],
      "name": "initialize",
      "outputs": [],
      "stateMutability": "nonpayable",
      "type": "function"
    },
    {
      "inputs": [],
      "name": "owner",
      "outputs": [
        {
          "internalType": "address",
          "name": "",
          "type": "address"
        }
      ],
      "stateMutability": "view",
      "type": "function"
    },
    {
      "inputs": [],
      "name": "pause",
      "outputs": [],
      "stateMutability": "nonpayable",
      "type": "function"
    },
    {
      "inputs": [],
      "name": "paused",
      "outputs": [
        {
          "internalType": "bool",
          "name": "",
          "type": "bool"
        }
      ],
      "stateMutability": "view",
      "type": "function"
    },
    {
      "inputs": [
        {
          "internalType": "string",
          "name": "",
          "type": "string"
        }
      ],
      "name": "pendingRewards",
      "outputs": [
        {
          "internalType": "uint256",
          "name": "",
          "type": "uint256"
        }
      ],
      "stateMutability": "view",
      "type": "function"
    },
    {
      "inputs": [
        {
          "internalType": "uint256",
          "name": "_questionId",
          "type": "uint256"
        }
      ],
      "name": "processExpiredQuestion",
      "outputs": [],
      "stateMutability": "nonpayable",
      "type": "function"
    },
    {
      "inputs": [
        {
          "internalType": "uint256[]",
          "name": "_questionIds",
          "type": "uint256[]"
        },
        {
          "internalType": "uint256[]",
          "name": "_answerTimestamps",
          "type": "uint256[]"
        }
      ],
      "name": "processQuestions",
      "outputs": [],
      "stateMutability": "nonpayable",
      "type": "function"
    },
    {
      "inputs": [],
      "name": "questionFee",
      "outputs": [
        {
          "internalType": "uint8",
          "name": "",
          "type": "uint8"
        }
      ],
      "stateMutability": "view",
      "type": "function"
    },
    {
      "inputs": [
        {
          "internalType": "uint256",
          "name": "",
          "type": "uint256"
        }
      ],
      "name": "questions",
      "outputs": [
        {
          "internalType": "uint256",
          "name": "id",
          "type": "uint256"
        },
        {
          "internalType": "string",
          "name": "askerId",
          "type": "string"
        },
        {
          "internalType": "string",
          "name": "answererId",
          "type": "string"
        },
        {
          "internalType": "string",
          "name": "questionContent",
          "type": "string"
        },
        {
          "internalType": "uint256",
          "name": "reward",
          "type": "uint256"
        },
        {
          "internalType": "address",
          "name": "paymentAddress",
          "type": "address"
        },
        {
          "internalType": "bool",
          "name": "resolved",
          "type": "bool"
        },
        {
          "internalType": "bool",
          "name": "terminated",
          "type": "bool"
        },
        {
          "internalType": "uint256",
          "name": "creationTimestamp",
          "type": "uint256"
        },
        {
          "internalType": "uint256",
          "name": "expiryTimestamp",
          "type": "uint256"
        }
      ],
      "stateMutability": "view",
      "type": "function"
    },
    {
      "inputs": [],
      "name": "refundFee",
      "outputs": [
        {
          "internalType": "uint8",
          "name": "",
          "type": "uint8"
        }
      ],
      "stateMutability": "view",
      "type": "function"
    },
    {
      "inputs": [
        {
          "internalType": "string",
          "name": "uid",
          "type": "string"
        },
        {
          "internalType": "address",
          "name": "user",
          "type": "address"
        },
        {
          "internalType": "uint256",
          "name": "expirationTime",
          "type": "uint256"
        },
        {
          "internalType": "bytes",
          "name": "signature",
          "type": "bytes"
        }
      ],
      "name": "register",
      "outputs": [],
      "stateMutability": "nonpayable",
      "type": "function"
    },
    {
      "inputs": [
        {
          "internalType": "address",
          "name": "",
          "type": "address"
        }
      ],
      "name": "registeredAddresses",
      "outputs": [
        {
          "internalType": "bool",
          "name": "",
          "type": "bool"
        }
      ],
      "stateMutability": "view",
      "type": "function"
    },
    {
      "inputs": [
        {
          "internalType": "string",
          "name": "",
          "type": "string"
        }
      ],
      "name": "registeredUIds",
      "outputs": [
        {
          "internalType": "bool",
          "name": "",
          "type": "bool"
        }
      ],
      "stateMutability": "view",
      "type": "function"
    },
    {
      "inputs": [],
      "name": "renounceOwnership",
      "outputs": [],
      "stateMutability": "nonpayable",
      "type": "function"
    },
    {
      "inputs": [],
      "name": "server",
      "outputs": [
        {
          "internalType": "address",
          "name": "",
          "type": "address"
        }
      ],
      "stateMutability": "view",
      "type": "function"
    },
    {
      "inputs": [
        {
          "internalType": "uint8",
          "name": "_answererRefundPercentage",
          "type": "uint8"
        }
      ],
      "name": "setAnswererRefundPercentage",
      "outputs": [],
      "stateMutability": "nonpayable",
      "type": "function"
    },
    {
      "inputs": [
        {
          "internalType": "uint8",
          "name": "_answererViewRewardPercentage",
          "type": "uint8"
        }
      ],
      "name": "setAnswererViewRewardPercentage",
      "outputs": [],
      "stateMutability": "nonpayable",
      "type": "function"
    },
    {
      "inputs": [
        {
          "internalType": "uint8",
          "name": "_askerRefundPercentage",
          "type": "uint8"
        }
      ],
      "name": "setAskerRefundPercentage",
      "outputs": [],
      "stateMutability": "nonpayable",
      "type": "function"
    },
    {
      "inputs": [
        {
          "internalType": "uint8",
          "name": "_askerViewRewardPercentage",
          "type": "uint8"
        }
      ],
      "name": "setAskerViewRewardPercentage",
      "outputs": [],
      "stateMutability": "nonpayable",
      "type": "function"
    },
    {
      "inputs": [
        {
          "internalType": "uint256",
          "name": "_minReward",
          "type": "uint256"
        }
      ],
      "name": "setMinReward",
      "outputs": [],
      "stateMutability": "nonpayable",
      "type": "function"
    },
    {
      "inputs": [
        {
          "internalType": "uint8",
          "name": "_questionFee",
          "type": "uint8"
        }
      ],
      "name": "setQuestionFee",
      "outputs": [],
      "stateMutability": "nonpayable",
      "type": "function"
    },
    {
      "inputs": [
        {
          "internalType": "uint8",
          "name": "_refundFee",
          "type": "uint8"
        }
      ],
      "name": "setRefundFee",
      "outputs": [],
      "stateMutability": "nonpayable",
      "type": "function"
    },
    {
      "inputs": [
        {
          "internalType": "address",
          "name": "_server",
          "type": "address"
        }
      ],
      "name": "setServer",
      "outputs": [],
      "stateMutability": "nonpayable",
      "type": "function"
    },
    {
      "inputs": [
        {
          "internalType": "uint8",
          "name": "_viewFee",
          "type": "uint8"
        }
      ],
      "name": "setViewFee",
      "outputs": [],
      "stateMutability": "nonpayable",
      "type": "function"
    },
    {
      "inputs": [
        {
          "internalType": "uint8",
          "name": "_viewRewardPercentage",
          "type": "uint8"
        }
      ],
      "name": "setViewRewardPercentage",
      "outputs": [],
      "stateMutability": "nonpayable",
      "type": "function"
    },
    {
      "inputs": [
        {
          "internalType": "uint256",
          "name": "_questionId",
          "type": "uint256"
        },
        {
          "internalType": "string",
          "name": "_askerId",
          "type": "string"
        },
        {
          "internalType": "string",
          "name": "_answererId",
          "type": "string"
        },
        {
          "internalType": "string",
          "name": "_questionContent",
          "type": "string"
        },
        {
          "internalType": "uint256",
          "name": "_minReward",
          "type": "uint256"
        },
        {
          "internalType": "uint256",
          "name": "_expiryTimestamp",
          "type": "uint256"
        },
        {
          "internalType": "bytes",
          "name": "_signature",
          "type": "bytes"
        }
      ],
      "name": "submitQuestion",
      "outputs": [],
      "stateMutability": "payable",
      "type": "function"
    },
    {
      "inputs": [
        {
          "internalType": "address",
          "name": "newOwner",
          "type": "address"
        }
      ],
      "name": "transferOwnership",
      "outputs": [],
      "stateMutability": "nonpayable",
      "type": "function"
    },
    {
      "inputs": [
        {
          "internalType": "string",
          "name": "",
          "type": "string"
        }
      ],
      "name": "uidToAddress",
      "outputs": [
        {
          "internalType": "address",
          "name": "",
          "type": "address"
        }
      ],
      "stateMutability": "view",
      "type": "function"
    },
    {
      "inputs": [],
      "name": "unpause",
      "outputs": [],
      "stateMutability": "nonpayable",
      "type": "function"
    },
    {
      "inputs": [],
      "name": "viewFee",
      "outputs": [
        {
          "internalType": "uint8",
          "name": "",
          "type": "uint8"
        }
      ],
      "stateMutability": "view",
      "type": "function"
    },
    {
      "inputs": [
        {
          "internalType": "uint256",
          "name": "_questionId",
          "type": "uint256"
        },
        {
          "internalType": "string",
          "name": "_viewerId",
          "type": "string"
        }
      ],
      "name": "viewQuestion",
      "outputs": [],
      "stateMutability": "payable",
      "type": "function"
    },
    {
      "inputs": [],
      "name": "viewRewardPercentage",
      "outputs": [
        {
          "internalType": "uint8",
          "name": "",
          "type": "uint8"
        }
      ],
      "stateMutability": "view",
      "type": "function"
    },
    {
      "inputs": [
        {
          "internalType": "address",
          "name": "to",
          "type": "address"
        }
      ],
      "name": "withdraw",
      "outputs": [],
      "stateMutability": "nonpayable",
      "type": "function"
    }
  ],
  "transactionHash": "0xc18ce9b875d43c4f5b9326ad2ff86c35925f9aaa1fa61752b88751abc9fe42fb",
  "args": [],
  "numDeployments": 1,
  "solcInputHash": "3544c84e77d887fe1b3c2664f648edea",
  "bytecode": "0x60808060405234601557612977908161001b8239f35b600080fdfe6080604052600436101561001257600080fd5b60003560e01c80630fffe86a14611d5b57806318486fc314611d345780631b462fc414611cee5780631b9731b614611cca5780631c59a43914611bc757806326ea509214611ba05780632d3b7df614611b585780633140cb4614611b0e57806331b1b97814611a305780633f4ba83a14611a0b57806348ea0c03146119ed578063501a1c51146119ab57806351cff8d9146119805780635975ab911461193a5780635c975abb146119175780635e7400de146118f35780635fb75fa0146118d0578063715018a614611866578063738741b81461182257806373a56f76146115425780637569ffbf146111c057806376b22eac146111815780637af6942f1461115d5780638456cb591461113557806384dd789f146110f15780638a55b54d146110cd5780638da5cb5b1461109757806390fe6ddb14611073578063b6a1cb2b14611052578063b803e41e14610be6578063c4d66de814610a2b578063cb03b6971461037b578063d5d21e7b1461033b578063df3b2fd814610317578063e2001cce146102d8578063e3891211146102b4578063eccbdb3d14610270578063f19a0b541461022d578063f2fde38b146102025763fd922a42146101d457600080fd5b346101fd5760003660031901126101fd576002546040516001600160a01b039091168152602090f35b600080fd5b346101fd5760203660031901126101fd5761022b61021e611dad565b61022661248e565b6122d2565b005b346101fd5760203660031901126101fd57610246611dad565b61024e61248e565b600280546001600160a01b0319166001600160a01b0392909216919091179055005b346101fd5760203660031901126101fd5760043560ff811681036101fd5761029661248e565b60ff60381b6000549160381b169060ff60381b191617600055600080f35b346101fd5760003660031901126101fd57602060ff60005460301c16604051908152f35b346101fd57602060ff610301826102ee36611f78565b8160405193828580945193849201611ede565b8101600681520301902054166040519015158152f35b346101fd5760003660031901126101fd57602060ff60005460281c16604051908152f35b346101fd5760203660031901126101fd5760043560ff811681036101fd5761036161248e565b61ff006000549160081b169061ff00191617600055600080f35b60e03660031901126101fd576024356001600160401b0381116101fd576103a6903690600401611fb6565b906044356001600160401b0381116101fd576103c6903690600401611fb6565b90916064356001600160401b0381116101fd576103e7903690600401611fb6565b60843560c4356001600160401b0381116101fd57610409903690600401611fb6565b61041860ff6000541615612013565b60015434106109d75761042e4260a435116121b0565b6107d0841161096c576104cf6104d8916104c96104ee946104c18a6104bc8f8f8f8d8f916104a09361048e9161047c604051998a9860043560208b015260c060408b015260e08a019161218f565b878103601f190160608901529161218f565b848103601f190160808601529161218f565b8b60a083015260a43560c083015203601f198101835282611e19565b61257f565b923691611f41565b9061275a565b90929192612796565b6002546001600160a01b0391821691161461221a565b3410610919576040519061050182611dfd565b6004358252610536610514368987611f41565b936020840194855261052736888a611f41565b92604085019384523691611f41565b90606083019182523460808401523360a0840152600060c0840152600060e08401524261010084015260a4356101208401526004356000526009602052604060002093835185556001850190518051906001600160401b03821161081f576105a8826105a28554611dc3565b8561225a565b602090601f83116001146108b2576105d99291600091836108a7575b50508160011b916000199060031b1c19161790565b90555b51805160028501916001600160401b03821161081f57610600826105a28554611dc3565b602090601f8311600114610840576106309291600091836108355750508160011b916000199060031b1c19161790565b90555b518051906001600160401b03821161081f5761065f826106566003870154611dc3565b6003870161225a565b602090601f831160011461077f57610120610747946106c1857f0fe4eb5e95e9ba0777b1c02cb36aeb551ce7fc687de64e8f78c9e479c7f1de5d9b99966107559b99966007966000926107745750508160011b916000199060031b1c19161790565b60038501555b6080810151600485015560a08082015160058601805460c085015160e08601516001600160b01b03199092166001600160a01b039490941693909317921515841b60ff60a01b169290921791151560a81b60ff60a81b1691909117905561010082015160068601559101519190920155604051818152979088019161218f565b91858303602087015261218f565b9133604082015234606082015260a435608082015280600435930390a2005b015190508e806105c4565b9060038501600052806000209160005b601f19851681106108075750610747946001856107559a9895600795610120957f0fe4eb5e95e9ba0777b1c02cb36aeb551ce7fc687de64e8f78c9e479c7f1de5d9e9c99601f198116106107ee575b505050811b0160038501556106c7565b015160001960f88460031b161c191690558d80806107de565b9192602060018192868501518155019401920161078f565b634e487b7160e01b600052604160045260246000fd5b015190508b806105c4565b90601f1983169184600052816000209260005b81811061088f5750908460019594939210610876575b505050811b019055610633565b015160001960f88460031b161c191690558a8080610869565b92936020600181928786015181550195019301610853565b015190508c806105c4565b90601f1983169184600052816000209260005b81811061090157509084600195949392106108e8575b505050811b0190556105dc565b015160001960f88460031b161c191690558b80806108db565b929360206001819287860151815501950193016108c5565b60405162461bcd60e51b815260206004820152602560248201527f526577617264206d7573742062652067726561746572207468616e206d696e52604482015264195dd85c9960da1b6064820152608490fd5b60405162461bcd60e51b815260206004820152603d60248201527f5175657374696f6e206d7573742062652067726561746572207468616e20302060448201527f616e64206c657373207468616e203230303020636861726163746572730000006064820152608490fd5b60405162461bcd60e51b815260206004820152602660248201527f526577617264206d7573742062652067726561746572207468616e204d494e5f604482015265149155d0549160d21b6064820152608490fd5b346101fd5760203660031901126101fd57610a44611dad565b600080516020612922833981519152549060ff8260401c1615916001600160401b03811680159081610bde575b6001149081610bd4575b159081610bcb575b50610bba5767ffffffffffffffff1981166001176000805160206129228339815191525582610b8d575b50610ab661281e565b610abe61281e565b600160008051602061290283398151915255610ad861281e565b610ae061281e565b610ae9336122d2565b600280546001600160a01b0319166001600160a01b039290921691909117905560008054682d2d0a2d2d0a0a0a0068ffffffffffffffffff19909116179055662386f26fc10000600155610b3957005b60ff60401b196000805160206129228339815191525416600080516020612922833981519152557fc7f505b2f371ae2175ee4913f4499e1f2633a7b5936321eed1cdaeb6115181d2602060405160018152a1005b68ffffffffffffffffff191668010000000000000001176000805160206129228339815191525582610aad565b63f92ee8a960e01b60005260046000fd5b90501584610a83565b303b159150610a7b565b849150610a71565b346101fd5760403660031901126101fd576004356001600160401b0381116101fd57610c16903690600401611fe3565b6024356001600160401b0381116101fd57610c35903690600401611fe3565b60025491939092916001600160a01b0316330361101457610c5b60ff6000541615612013565b828203610fa95760005b828110610c6e57005b610c798184846122ac565b3590610c868186886122ac565b359180600052600960205260406000209260058401908154610cb160018060a01b0382161515612143565b60ff8160a01c16610f645760ff610ccc9160a81c1615612054565b60078501541115610dac57805460ff60a01b1916600160a01b179055600483015460005460081c60ff908116606403908111610d96576001947fdfeb73711aa64777ddcb485e6f31c5c49ec8905260d4c5051795fba2aad1033392610d446064610d3c60ff610d739616846120a0565b0480926120b3565b610d8160028401610d5d84610d5883611e3a565b612375565b604051958695608087528b6080880191016120c0565b9085820360208701526120c0565b91604084015260608301520390a25b01610c65565b634e487b7160e01b600052601160045260246000fd5b509150610dbe60ff6000541615612013565b816000526009602052604060002091600583019283549060ff8260a01c16610f2857610df060ff8360a81c1615612054565b60078101544210610ee35760019460ff610ebd927ffc3413c945224ab13d4696447499614272b9757fff872049b5162a0a1e13bc13948860a81b908360a81b1916178355600481015490610ecb610e7860005493610e736064610e6a81610e5c8a8a60101c16866120a0565b0498899860201c16846120a0565b049687926120b3565b6120b3565b91610ea9858c6002840193610e9087610d5887611e3a565b01978d8060a01b03905416610ea489611e3a565b61245d565b60405196879660a0885260a08801906120c0565b9086820360208801526120c0565b926040850152606084015260808301520390a2610d90565b60405162461bcd60e51b815260206004820152601760248201527f5175657374696f6e206973206e6f7420657870697265640000000000000000006044820152606490fd5b60405162461bcd60e51b8152602060048201526014602482015273145d595cdd1a5bdb881a5cc8185b9cddd95c995960621b6044820152606490fd5b60405162461bcd60e51b815260206004820152601c60248201527f5175657374696f6e20697320616c726561647920616e737765726564000000006044820152606490fd5b60405162461bcd60e51b815260206004820152603a60248201527f5175657374696f6e49647320616e6420416e7377657254696d657374616d707360448201527f206d7573742068617665207468652073616d65206c656e6774680000000000006064820152608490fd5b60405162461bcd60e51b81526020600482015260166024820152752cb7ba9030b932903737ba103a34329039b2b93b32b960511b6044820152606490fd5b346101fd5760203660031901126101fd5761106b61248e565b600435600155005b346101fd5760003660031901126101fd57602060ff60005460101c16604051908152f35b346101fd5760003660031901126101fd576000805160206128e2833981519152546040516001600160a01b039091168152602090f35b346101fd5760003660031901126101fd57602060ff60005460081c16604051908152f35b346101fd5760203660031901126101fd5760043560ff811681036101fd5761111761248e565b63ff0000006000549160181b169063ff000000191617600055600080f35b346101fd5760003660031901126101fd5761114e61248e565b6000805460ff19166001179055005b346101fd5760003660031901126101fd57602060ff60005460181c16604051908152f35b346101fd5760203660031901126101fd576001600160a01b036111a2611dad565b166000526005602052602060ff604060002054166040519015158152f35b346101fd5760803660031901126101fd576004356001600160401b0381116101fd576111f0903690600401611fb6565b6024356001600160a01b03811692908381036101fd576044356064356001600160401b0381116101fd57611228903690600401611fb6565b919061123960ff6000541615612013565b86600052600560205260ff604060002054166115065760ff60405187878237602081898101600681520301902054166114ce576112c2926104c96104cf926104c1886104bc8b8d6104d89961128f4282116121b0565b6112a960405195869460606020870152608086019161218f565b916040840152606083015203601f198101835282611e19565b83600052600360205260406000206001600160401b03841161081f576112f2846112ec8354611dc3565b8361225a565b600084601f811160011461146b578061132192600091611460575b508160011b916000199060031b1c19161790565b90555b604051838382376020818581016004815203019020846bffffffffffffffffffffffff60a01b8254161790558360005260056020526040600020600160ff19825416179055604051838382376020818581016006815203019020600160ff1982541617905560405183838237602081858101600881520301902054806113e0575b50508160405192839283378101600081520390207f50f74ca45caac8020b8d891bd13ea5a2d79564986ee6a839f0d914896388322d600080a3005b7fe537248374c829b45c18323056d64acb676dfcfcb7d39826500485c6306b682e9060006040518686823760208188810160088152030190205561142981610d58368888611f41565b6040518585823760008187019081528190039020604080516001600160a01b03959095168552602085019290925292a283806113a5565b90508501358861130d565b50818152602081209085601f198116825b8181106114b3575010611499575b5050600184811b019055611324565b840135600019600387901b60f8161c19169055858061148a565b8784013585556001909401936020938401938993500161147c565b60405162461bcd60e51b815260206004820152601060248201526f15525108105b1c9958591e48155cd95960821b6044820152606490fd5b60405162461bcd60e51b81526020600482015260146024820152731059191c995cdcc8105b1c9958591e48155cd95960621b6044820152606490fd5b60403660031901126101fd576004356024356001600160401b0381116101fd57611570903690600401611fb6565b906000549161158260ff841615612013565b6002600080516020612902833981519152541461181157600260008051602061290283398151915255836000526009602052604060002092604051906115c782611dfd565b845482526115d760018601611e3a565b91602081019283526115eb60028701611e3a565b95604082019687526115ff60038201611e3a565b60608301526004810154906080830191825260058101549061166660018060a01b03831660a0860195818752610120600760c083019560ff8860a01c161515875260ff60e085019860a81c1615158852600681015461010085015201549101521515612143565b511590811591611806575b50156117c15761168b6064915160ff8560301c16906120a0565b04341061176e576117477fbefe16033fc14ca9b390870d8982fb30aaaaa71a0043596bf54867452f36e8da9661173960646116dd60ff826116d1828a60181c16346120a0565b049760381c16346120a0565b0495611710876116f188610e7383346120b3565b966116fd888751612375565b835190516001600160a01b03169061245d565b5191519161172b604051998a9960c08b5260c08b019161218f565b9088820360208a0152611f01565b908682036040880152611f01565b926060850152608084015260a08301520390a2600160008051602061290283398151915255005b60405162461bcd60e51b815260206004820152602560248201527f56616c7565206d7573742062652067726561746572207468616e207669657752604482015264195dd85c9960da1b6064820152608490fd5b60405162461bcd60e51b815260206004820152601960248201527f5175657374696f6e206973206e6f742070726f636573736564000000000000006044820152606490fd5b905051151589611671565b633ee5aeb560e01b60005260046000fd5b346101fd5760203660031901126101fd5760043560ff811681036101fd5761184861248e565b60ff60401b6000549160401b169060ff60401b191617600055600080f35b346101fd5760003660031901126101fd5761187f61248e565b6000805160206128e283398151915280546001600160a01b031981169091556000906001600160a01b03167f8be0079c531659141344cd1fd0a4f28419497f9722a3daafe3b4186f6b6457e08280a3005b346101fd5760003660031901126101fd57602060ff600054821c16604051908152f35b346101fd5760003660031901126101fd57602060ff60005460401c16604051908152f35b346101fd5760003660031901126101fd57602060ff600054166040519015158152f35b346101fd5760203660031901126101fd5760043560ff811681036101fd5761196061248e565b64ff000000006000549160201b169064ff00000000191617600055600080f35b346101fd5760203660031901126101fd5761022b61199c611dad565b6119a461248e565b47906124c4565b346101fd5760203660031901126101fd5760043560ff811681036101fd576119d161248e565b62ff00006000549160101b169062ff0000191617600055600080f35b346101fd5760003660031901126101fd576020600154604051908152f35b346101fd5760003660031901126101fd57611a2461248e565b6000805460ff19169055005b346101fd5760203660031901126101fd57600435600052600960205260406000208054611a5f60018301611e3a565b91611a6c60028201611e3a565b611a7860038301611e3a565b9160ff600482015493611ad2600584015491611ac46007600687015496015496611ab66040519b8c9b8c5261014060208d01526101408c0190611f01565b908a820360408c0152611f01565b9088820360608a0152611f01565b94608087015260018060a01b03811660a0870152818160a01c16151560c087015260a81c16151560e08501526101008401526101208301520390f35b346101fd5760203660031901126101fd5760043560ff811681036101fd57611b3461248e565b66ff0000000000006000549160301b169066ff000000000000191617600055600080f35b346101fd5760203660031901126101fd5760043560ff811681036101fd57611b7e61248e565b65ff00000000006000549160281b169065ff0000000000191617600055600080f35b346101fd576020611bb4816102ee36611f78565b8101600881520301902054604051908152f35b346101fd5760203660031901126101fd57600435611bea60ff6000541615612013565b8060005260096020526040600020600581019081549160ff8360a01c16610f2857611c1b60ff8460a81c1615612054565b60078201544210610ee35760ff610ebd927ffc3413c945224ab13d4696447499614272b9757fff872049b5162a0a1e13bc1394600160a81b908360a81b1916178355600481015490611cb5611c8560005493610e736064610e6a81610e5c8a8a60101c16866120a0565b91610ea98560016002840193611c9e87610d5887611e3a565b98549801976001600160a01b0316610ea489611e3a565b926040850152606084015260808301520390a2005b346101fd5760003660031901126101fd57602060ff60005460381c16604051908152f35b346101fd576020611cfe36611f78565b81611d126040519283815193849201611ede565b600490820190815281900382019020546040516001600160a01b039091168152f35b346101fd576020611d48816102ee36611f78565b8101600781520301902054604051908152f35b346101fd5760203660031901126101fd576001600160a01b03611d7c611dad565b166000526003602052611da9611d956040600020611e3a565b604051918291602083526020830190611f01565b0390f35b600435906001600160a01b03821682036101fd57565b90600182811c92168015611df3575b6020831014611ddd57565b634e487b7160e01b600052602260045260246000fd5b91607f1691611dd2565b61014081019081106001600160401b0382111761081f57604052565b90601f801991011681019081106001600160401b0382111761081f57604052565b9060405191826000825492611e4e84611dc3565b8084529360018116908115611ebc5750600114611e75575b50611e7392500383611e19565b565b90506000929192526020600020906000915b818310611ea0575050906020611e739282010138611e66565b6020919350806001915483858901015201910190918492611e87565b905060209250611e7394915060ff191682840152151560051b82010138611e66565b60005b838110611ef15750506000910152565b8181015183820152602001611ee1565b90602091611f1a81518092818552858086019101611ede565b601f01601f1916010190565b6001600160401b03811161081f57601f01601f191660200190565b929192611f4d82611f26565b91611f5b6040519384611e19565b8294818452818301116101fd578281602093846000960137010152565b60206003198201126101fd57600435906001600160401b0382116101fd57806023830112156101fd57816024611fb393600401359101611f41565b90565b9181601f840112156101fd578235916001600160401b0383116101fd57602083818601950101116101fd57565b9181601f840112156101fd578235916001600160401b0383116101fd576020808501948460051b0101116101fd57565b1561201a57565b60405162461bcd60e51b815260206004820152601260248201527110dbdb9d1c9858dd081a5cc81c185d5cd95960721b6044820152606490fd5b1561205b57565b60405162461bcd60e51b815260206004820152601c60248201527f5175657374696f6e20697320616c72656164792063616e63656c6564000000006044820152606490fd5b81810292918115918404141715610d9657565b91908203918211610d9657565b600092918154916120d083611dc3565b808352926001811690811561212657506001146120ec57505050565b60009081526020812093945091925b83831061210c575060209250010190565b6001816020929493945483858701015201910191906120fb565b915050602093945060ff929192191683830152151560051b010190565b1561214a57565b60405162461bcd60e51b815260206004820152601760248201527f5175657374696f6e20646f6573206e6f742065786973740000000000000000006044820152606490fd5b908060209392818452848401376000828201840152601f01601f1916010190565b156121b757565b60405162461bcd60e51b815260206004820152603560248201527f45787069726174696f6e54696d65206d75737420626520677265617465722074604482015274068616e2063757272656e742074696d657374616d7605c1b6064820152608490fd5b1561222157565b60405162461bcd60e51b8152602060048201526011602482015270496e76616c6964205369676e617475726560781b6044820152606490fd5b601f821161226757505050565b6000526020600020906020601f840160051c830193106122a2575b601f0160051c01905b818110612296575050565b6000815560010161228b565b9091508190612282565b91908110156122bc5760051b0190565b634e487b7160e01b600052603260045260246000fd5b6001600160a01b03168015612332576000805160206128e283398151915280546001600160a01b0319811683179091556001600160a01b03167f8be0079c531659141344cd1fd0a4f28419497f9722a3daafe3b4186f6b6457e0600080a3565b631e4fbdf760e01b600052600060045260246000fd5b91908201809211610d9657565b61236d90602060405192828480945193849201611ede565b810103902090565b907fe537248374c829b45c18323056d64acb676dfcfcb7d39826500485c6306b682e9061240c60405193805194602081818401976123b481838b611ede565b810160078152030190206123c9848254612348565b905560405181516123db818389611ede565b60049082019081528190036020019020546001600160a01b031694851561242a575061240783866124c4565b612355565b604080516001600160a01b03959095168552602085019290925292a2565b602061244191604051809381928651928391611ede565b81016008815203019020612456848254612348565b9055612355565b9161240c7f5bd429efa049c39d72479b36fbb90b4d3b336ec6113fc280e56ba3fe97b32920929361240783866124c4565b6000805160206128e2833981519152546001600160a01b031633036124af57565b63118cdaa760e01b6000523360045260246000fd5b6001600160a01b0316801561254857600080809381935af13d15612543573d6124ec81611f26565b906124fa6040519283611e19565b8152600060203d92013e5b1561250c57565b60405162461bcd60e51b815260206004820152600f60248201526e151c985b9cd9995c8819985a5b1959608a1b6044820152606490fd5b612505565b60405162461bcd60e51b815260206004820152600f60248201526e496e76616c6964206164647265737360881b6044820152606490fd5b80519060008272184f03e93ff9f4daa797ed6e38ed64bf6a1f0160401b811015612737575b806d04ee2d6d415b85acef8100000000600a92101561271c575b662386f26fc10000811015612708575b6305f5e1008110156126f7575b6127108110156126e8575b60648110156126da575b10156126d2575b6001810192600a602161262261260c87611f26565b9661261a6040519889611e19565b808852611f26565b602087019490601f19013686378601015b60001901916f181899199a1a9b1b9c1cb0b131b232b360811b8282061a83530490811561266257600a90612633565b50506126cc90603a6040519384926126a760208501977f19457468657265756d205369676e6564204d6573736167653a0a000000000000895251809285870190611ede565b83016126bc8251809360208685019101611ede565b010103601f198101835282611e19565b51902090565b6001016125f7565b6064600291049201916125f0565b612710600491049201916125e6565b6305f5e100600891049201916125db565b662386f26fc10000601091049201916125ce565b6d04ee2d6d415b85acef8100000000602091049201916125be565b506040905072184f03e93ff9f4daa797ed6e38ed64bf6a1f0160401b83046125a4565b815191906041830361278b5761278492506020820151906060604084015193015160001a9061284c565b9192909190565b505060009160029190565b919091600481101561280857806127ac57509050565b6000600182036127c75763f645eedf60e01b60005260046000fd5b50600281036127e5578263fce698f760e01b60005260045260246000fd5b90916003600092146127f5575050565b6335e2f38360e21b825260045260249150fd5b634e487b7160e01b600052602160045260246000fd5b60ff6000805160206129228339815191525460401c161561283b57565b631afcd79f60e31b60005260046000fd5b91907f7fffffffffffffffffffffffffffffff5d576e7357a4501ddfe92f46681b20a084116128d5579160209360809260ff60009560405194855216868401526040830152606082015282805260015afa156128c9576000516001600160a01b038116156128bd5790600090600090565b50600090600190600090565b6040513d6000823e3d90fd5b5050506000916003919056fe9016d09d72d40fdae2fd8ceac6b6234c7706214fd39c1cd1e609a0528c1993009b779b17422d0df92223018b32b4d1fa46e071723d6817e2486d003becc55f00f0c57e16840df040f15088dc2f81fe391c3923bec73e23a9662efc9c229c6a00a2646970667358221220f94fe7e4a0977d7476a7e5291b4f92239f205d988c3a62fe089831683008296f64736f6c634300081c0033",
  "devdoc": {
    "errors": {
      "ECDSAInvalidSignature()": [
        {
          "details": "The signature derives the `address(0)`."
        }
      ],
      "ECDSAInvalidSignatureLength(uint256)": [
        {
          "details": "The signature has an invalid length."
        }
      ],
      "ECDSAInvalidSignatureS(bytes32)": [
        {
          "details": "The signature has an S value that is in the upper half order."
        }
      ],
      "InvalidInitialization()": [
        {
          "details": "The contract is already initialized."
        }
      ],
      "NotInitializing()": [
        {
          "details": "The contract is not initializing."
        }
      ],
      "OwnableInvalidOwner(address)": [
        {
          "details": "The owner is not a valid owner account. (eg. `address(0)`)"
        }
      ],
      "OwnableUnauthorizedAccount(address)": [
        {
          "details": "The caller account is not authorized to perform an operation."
        }
      ],
      "ReentrancyGuardReentrantCall()": [
        {
          "details": "Unauthorized reentrant call."
        }
      ]
    },
    "events": {
      "Initialized(uint64)": {
        "details": "Triggered when the contract has been initialized or reinitialized."
      }
    },
    "kind": "dev",
    "methods": {
      "owner()": {
        "details": "Returns the address of the current owner."
      },
      "renounceOwnership()": {
        "details": "Leaves the contract without owner. It will not be possible to call `onlyOwner` functions. Can only be called by the current owner. NOTE: Renouncing ownership will leave the contract without an owner, thereby disabling any functionality that is only available to the owner."
      },
      "transferOwnership(address)": {
        "details": "Transfers ownership of the contract to a new account (`newOwner`). Can only be called by the current owner."
      }
    },
    "version": 1
  },
  "userdoc": {
    "kind": "user",
    "methods": {},
    "version": 1
  },
  "storageLayout": {
    "storage": [
      {
        "astId": 5832,
        "contract": "contracts/QAMarketplace.sol:QAMarketplace",
        "label": "paused",
        "offset": 0,
        "slot": "0",
        "type": "t_bool"
      },
      {
        "astId": 5834,
        "contract": "contracts/QAMarketplace.sol:QAMarketplace",
        "label": "questionFee",
        "offset": 1,
        "slot": "0",
        "type": "t_uint8"
      },
      {
        "astId": 5836,
        "contract": "contracts/QAMarketplace.sol:QAMarketplace",
        "label": "refundFee",
        "offset": 2,
        "slot": "0",
        "type": "t_uint8"
      },
      {
        "astId": 5838,
        "contract": "contracts/QAMarketplace.sol:QAMarketplace",
        "label": "viewFee",
        "offset": 3,
        "slot": "0",
        "type": "t_uint8"
      },
      {
        "astId": 5840,
        "contract": "contracts/QAMarketplace.sol:QAMarketplace",
        "label": "askerRefundPercentage",
        "offset": 4,
        "slot": "0",
        "type": "t_uint8"
      },
      {
        "astId": 5842,
        "contract": "contracts/QAMarketplace.sol:QAMarketplace",
        "label": "answererRefundPercentage",
        "offset": 5,
        "slot": "0",
        "type": "t_uint8"
      },
      {
        "astId": 5844,
        "contract": "contracts/QAMarketplace.sol:QAMarketplace",
        "label": "viewRewardPercentage",
        "offset": 6,
        "slot": "0",
        "type": "t_uint8"
      },
      {
        "astId": 5846,
        "contract": "contracts/QAMarketplace.sol:QAMarketplace",
        "label": "askerViewRewardPercentage",
        "offset": 7,
        "slot": "0",
        "type": "t_uint8"
      },
      {
        "astId": 5848,
        "contract": "contracts/QAMarketplace.sol:QAMarketplace",
        "label": "answererViewRewardPercentage",
        "offset": 8,
        "slot": "0",
        "type": "t_uint8"
      },
      {
        "astId": 5850,
        "contract": "contracts/QAMarketplace.sol:QAMarketplace",
        "label": "MIN_REWARD",
        "offset": 0,
        "slot": "1",
        "type": "t_uint256"
      },
      {
        "astId": 5852,
        "contract": "contracts/QAMarketplace.sol:QAMarketplace",
        "label": "server",
        "offset": 0,
        "slot": "2",
        "type": "t_address"
      },
      {
        "astId": 5877,
        "contract": "contracts/QAMarketplace.sol:QAMarketplace",
        "label": "addressToUid",
        "offset": 0,
        "slot": "3",
        "type": "t_mapping(t_address,t_string_storage)"
      },
      {
        "astId": 5881,
        "contract": "contracts/QAMarketplace.sol:QAMarketplace",
        "label": "uidToAddress",
        "offset": 0,
        "slot": "4",
        "type": "t_mapping(t_string_memory_ptr,t_address)"
      },
      {
        "astId": 5885,
        "contract": "contracts/QAMarketplace.sol:QAMarketplace",
        "label": "registeredAddresses",
        "offset": 0,
        "slot": "5",
        "type": "t_mapping(t_address,t_bool)"
      },
      {
        "astId": 5889,
        "contract": "contracts/QAMarketplace.sol:QAMarketplace",
        "label": "registeredUIds",
        "offset": 0,
        "slot": "6",
        "type": "t_mapping(t_string_memory_ptr,t_bool)"
      },
      {
        "astId": 5893,
        "contract": "contracts/QAMarketplace.sol:QAMarketplace",
        "label": "answererEarnings",
        "offset": 0,
        "slot": "7",
        "type": "t_mapping(t_string_memory_ptr,t_uint256)"
      },
      {
        "astId": 5897,
        "contract": "contracts/QAMarketplace.sol:QAMarketplace",
        "label": "pendingRewards",
        "offset": 0,
        "slot": "8",
        "type": "t_mapping(t_string_memory_ptr,t_uint256)"
      },
      {
        "astId": 5902,
        "contract": "contracts/QAMarketplace.sol:QAMarketplace",
        "label": "questions",
        "offset": 0,
        "slot": "9",
        "type": "t_mapping(t_uint256,t_struct(QASession)5873_storage)"
      }
    ],
    "types": {
      "t_address": {
        "encoding": "inplace",
        "label": "address",
        "numberOfBytes": "20"
      },
      "t_bool": {
        "encoding": "inplace",
        "label": "bool",
        "numberOfBytes": "1"
      },
      "t_mapping(t_address,t_bool)": {
        "encoding": "mapping",
        "key": "t_address",
        "label": "mapping(address => bool)",
        "numberOfBytes": "32",
        "value": "t_bool"
      },
      "t_mapping(t_address,t_string_storage)": {
        "encoding": "mapping",
        "key": "t_address",
        "label": "mapping(address => string)",
        "numberOfBytes": "32",
        "value": "t_string_storage"
      },
      "t_mapping(t_string_memory_ptr,t_address)": {
        "encoding": "mapping",
        "key": "t_string_memory_ptr",
        "label": "mapping(string => address)",
        "numberOfBytes": "32",
        "value": "t_address"
      },
      "t_mapping(t_string_memory_ptr,t_bool)": {
        "encoding": "mapping",
        "key": "t_string_memory_ptr",
        "label": "mapping(string => bool)",
        "numberOfBytes": "32",
        "value": "t_bool"
      },
      "t_mapping(t_string_memory_ptr,t_uint256)": {
        "encoding": "mapping",
        "key": "t_string_memory_ptr",
        "label": "mapping(string => uint256)",
        "numberOfBytes": "32",
        "value": "t_uint256"
      },
      "t_mapping(t_uint256,t_struct(QASession)5873_storage)": {
        "encoding": "mapping",
        "key": "t_uint256",
        "label": "mapping(uint256 => struct QAMarketplace.QASession)",
        "numberOfBytes": "32",
        "value": "t_struct(QASession)5873_storage"
      },
      "t_string_memory_ptr": {
        "encoding": "bytes",
        "label": "string",
        "numberOfBytes": "32"
      },
      "t_string_storage": {
        "encoding": "bytes",
        "label": "string",
        "numberOfBytes": "32"
      },
      "t_struct(QASession)5873_storage": {
        "encoding": "inplace",
        "label": "struct QAMarketplace.QASession",
        "members": [
          {
            "astId": 5854,
            "contract": "contracts/QAMarketplace.sol:QAMarketplace",
            "label": "id",
            "offset": 0,
            "slot": "0",
            "type": "t_uint256"
          },
          {
            "astId": 5856,
            "contract": "contracts/QAMarketplace.sol:QAMarketplace",
            "label": "askerId",
            "offset": 0,
            "slot": "1",
            "type": "t_string_storage"
          },
          {
            "astId": 5858,
            "contract": "contracts/QAMarketplace.sol:QAMarketplace",
            "label": "answererId",
            "offset": 0,
            "slot": "2",
            "type": "t_string_storage"
          },
          {
            "astId": 5860,
            "contract": "contracts/QAMarketplace.sol:QAMarketplace",
            "label": "questionContent",
            "offset": 0,
            "slot": "3",
            "type": "t_string_storage"
          },
          {
            "astId": 5862,
            "contract": "contracts/QAMarketplace.sol:QAMarketplace",
            "label": "reward",
            "offset": 0,
            "slot": "4",
            "type": "t_uint256"
          },
          {
            "astId": 5864,
            "contract": "contracts/QAMarketplace.sol:QAMarketplace",
            "label": "paymentAddress",
            "offset": 0,
            "slot": "5",
            "type": "t_address"
          },
          {
            "astId": 5866,
            "contract": "contracts/QAMarketplace.sol:QAMarketplace",
            "label": "resolved",
            "offset": 20,
            "slot": "5",
            "type": "t_bool"
          },
          {
            "astId": 5868,
            "contract": "contracts/QAMarketplace.sol:QAMarketplace",
            "label": "terminated",
            "offset": 21,
            "slot": "5",
            "type": "t_bool"
          },
          {
            "astId": 5870,
            "contract": "contracts/QAMarketplace.sol:QAMarketplace",
            "label": "creationTimestamp",
            "offset": 0,
            "slot": "6",
            "type": "t_uint256"
          },
          {
            "astId": 5872,
            "contract": "contracts/QAMarketplace.sol:QAMarketplace",
            "label": "expiryTimestamp",
            "offset": 0,
            "slot": "7",
            "type": "t_uint256"
          }
        ],
        "numberOfBytes": "256"
      },
      "t_uint256": {
        "encoding": "inplace",
        "label": "uint256",
        "numberOfBytes": "32"
      },
      "t_uint8": {
        "encoding": "inplace",
        "label": "uint8",
        "numberOfBytes": "1"
      }
    }
  }
}